{
  "_format": "hh-sol-artifact-1",
  "contractName": "ModelRegistry",
  "sourceName": "contracts/storageId.sol",
  "abi": [
    {
      "inputs": [
        {
          "internalType": "string",
          "name": "_name",
          "type": "string"
        },
        {
          "internalType": "string",
          "name": "_data",
          "type": "string"
        },
        {
          "internalType": "string",
          "name": "_id",
          "type": "string"
        },
        {
          "internalType": "string",
          "name": "_accuracy",
          "type": "string"
        }
      ],
      "name": "addModel",
      "outputs": [],
      "stateMutability": "nonpayable",
      "type": "function"
    },
    {
      "inputs": [],
      "name": "getAllModels",
      "outputs": [
        {
          "internalType": "string[]",
          "name": "",
          "type": "string[]"
        },
        {
          "internalType": "string[]",
          "name": "",
          "type": "string[]"
        },
        {
          "internalType": "string[]",
          "name": "",
          "type": "string[]"
        },
        {
          "internalType": "string[]",
          "name": "",
          "type": "string[]"
        }
      ],
      "stateMutability": "view",
      "type": "function"
    },
    {
      "inputs": [
        {
          "internalType": "uint256",
          "name": "index",
          "type": "uint256"
        }
      ],
      "name": "getModel",
      "outputs": [
        {
          "internalType": "string",
          "name": "",
          "type": "string"
        },
        {
          "internalType": "string",
          "name": "",
          "type": "string"
        },
        {
          "internalType": "string",
          "name": "",
          "type": "string"
        },
        {
          "internalType": "string",
          "name": "",
          "type": "string"
        }
      ],
      "stateMutability": "view",
      "type": "function"
    },
    {
      "inputs": [],
      "name": "getModelsCount",
      "outputs": [
        {
          "internalType": "uint256",
          "name": "",
          "type": "uint256"
        }
      ],
      "stateMutability": "view",
      "type": "function"
    },
    {
      "inputs": [
        {
          "internalType": "uint256",
          "name": "",
          "type": "uint256"
        }
      ],
      "name": "models",
      "outputs": [
        {
          "internalType": "string",
          "name": "name",
          "type": "string"
        },
        {
          "internalType": "string",
          "name": "data",
          "type": "string"
        },
        {
          "internalType": "string",
          "name": "id",
          "type": "string"
        },
        {
          "internalType": "string",
          "name": "accuracy",
          "type": "string"
        }
      ],
      "stateMutability": "view",
      "type": "function"
    },
    {
      "inputs": [
        {
          "internalType": "string",
          "name": "_id",
          "type": "string"
        },
        {
          "internalType": "string",
          "name": "_newAccuracy",
          "type": "string"
        }
      ],
      "name": "updateModelAccuracy",
      "outputs": [],
      "stateMutability": "nonpayable",
      "type": "function"
    }
  ],
  "bytecode": "0x608060405234801561001057600080fd5b50611714806100206000396000f3fe608060405234801561001057600080fd5b50600436106100625760003560e01c8063298fbde01461006757806361e6210e146100855780636a030ca9146100a15780636d361694146100d4578063a9a5cb3a14610107578063e41a4ddc14610128575b600080fd5b61006f610144565b60405161007c9190610cca565b60405180910390f35b61009f600480360381019061009a9190610e3f565b610150565b005b6100bb60048036038101906100b69190610f42565b610202565b6040516100cb9493929190610fee565b60405180910390f35b6100ee60048036038101906100e99190610f42565b610462565b6040516100fe9493929190610fee565b60405180910390f35b61010f61074b565b60405161011f949392919061115b565b60405180910390f35b610142600480360381019061013d91906111bc565b610c08565b005b60008080549050905090565b60006040518060800160405280868152602001858152602001848152602001838152509050600081908060018154018082558091505060019003906000526020600020906004020160009091909190915060008201518160000190816101b69190611440565b5060208201518160010190816101cc9190611440565b5060408201518160020190816101e29190611440565b5060608201518160030190816101f89190611440565b5050505050505050565b6000818154811061021257600080fd5b906000526020600020906004020160009150905080600001805461023590611263565b80601f016020809104026020016040519081016040528092919081815260200182805461026190611263565b80156102ae5780601f10610283576101008083540402835291602001916102ae565b820191906000526020600020905b81548152906001019060200180831161029157829003601f168201915b5050505050908060010180546102c390611263565b80601f01602080910402602001604051908101604052809291908181526020018280546102ef90611263565b801561033c5780601f106103115761010080835404028352916020019161033c565b820191906000526020600020905b81548152906001019060200180831161031f57829003601f168201915b50505050509080600201805461035190611263565b80601f016020809104026020016040519081016040528092919081815260200182805461037d90611263565b80156103ca5780601f1061039f576101008083540402835291602001916103ca565b820191906000526020600020905b8154815290600101906020018083116103ad57829003601f168201915b5050505050908060030180546103df90611263565b80601f016020809104026020016040519081016040528092919081815260200182805461040b90611263565b80156104585780601f1061042d57610100808354040283529160200191610458565b820191906000526020600020905b81548152906001019060200180831161043b57829003601f168201915b5050505050905084565b60608060608060008054905085106104af576040517f08c379a00000000000000000000000000000000000000000000000000000000081526004016104a69061155e565b60405180910390fd5b60008086815481106104c4576104c361157e565b5b90600052602060002090600402016040518060800160405290816000820180546104ed90611263565b80601f016020809104026020016040519081016040528092919081815260200182805461051990611263565b80156105665780601f1061053b57610100808354040283529160200191610566565b820191906000526020600020905b81548152906001019060200180831161054957829003601f168201915b5050505050815260200160018201805461057f90611263565b80601f01602080910402602001604051908101604052809291908181526020018280546105ab90611263565b80156105f85780601f106105cd576101008083540402835291602001916105f8565b820191906000526020600020905b8154815290600101906020018083116105db57829003601f168201915b5050505050815260200160028201805461061190611263565b80601f016020809104026020016040519081016040528092919081815260200182805461063d90611263565b801561068a5780601f1061065f5761010080835404028352916020019161068a565b820191906000526020600020905b81548152906001019060200180831161066d57829003601f168201915b505050505081526020016003820180546106a390611263565b80601f01602080910402602001604051908101604052809291908181526020018280546106cf90611263565b801561071c5780601f106106f15761010080835404028352916020019161071c565b820191906000526020600020905b8154815290600101906020018083116106ff57829003601f168201915b505050505081525050905080600001518160200151826040015183606001519450945094509450509193509193565b60608060608060008080549050905060008167ffffffffffffffff81111561077657610775610d14565b5b6040519080825280602002602001820160405280156107a957816020015b60608152602001906001900390816107945790505b50905060008267ffffffffffffffff8111156107c8576107c7610d14565b5b6040519080825280602002602001820160405280156107fb57816020015b60608152602001906001900390816107e65790505b50905060008367ffffffffffffffff81111561081a57610819610d14565b5b60405190808252806020026020018201604052801561084d57816020015b60608152602001906001900390816108385790505b50905060008467ffffffffffffffff81111561086c5761086b610d14565b5b60405190808252806020026020018201604052801561089f57816020015b606081526020019060019003908161088a5790505b50905060005b85811015610bf057600081815481106108c1576108c061157e565b5b906000526020600020906004020160000180546108dd90611263565b80601f016020809104026020016040519081016040528092919081815260200182805461090990611263565b80156109565780601f1061092b57610100808354040283529160200191610956565b820191906000526020600020905b81548152906001019060200180831161093957829003601f168201915b505050505085828151811061096e5761096d61157e565b5b60200260200101819052506000818154811061098d5761098c61157e565b5b906000526020600020906004020160010180546109a990611263565b80601f01602080910402602001604051908101604052809291908181526020018280546109d590611263565b8015610a225780601f106109f757610100808354040283529160200191610a22565b820191906000526020600020905b815481529060010190602001808311610a0557829003601f168201915b5050505050848281518110610a3a57610a3961157e565b5b602002602001018190525060008181548110610a5957610a5861157e565b5b90600052602060002090600402016002018054610a7590611263565b80601f0160208091040260200160405190810160405280929190818152602001828054610aa190611263565b8015610aee5780601f10610ac357610100808354040283529160200191610aee565b820191906000526020600020905b815481529060010190602001808311610ad157829003601f168201915b5050505050838281518110610b0657610b0561157e565b5b602002602001018190525060008181548110610b2557610b2461157e565b5b90600052602060002090600402016003018054610b4190611263565b80601f0160208091040260200160405190810160405280929190818152602001828054610b6d90611263565b8015610bba5780601f10610b8f57610100808354040283529160200191610bba565b820191906000526020600020905b815481529060010190602001808311610b9d57829003601f168201915b5050505050828281518110610bd257610bd161157e565b5b60200260200101819052508080610be8906115dc565b9150506108a5565b50838383839850985098509850505050505090919293565b60005b600080549050811015610cab57828051906020012060008281548110610c3457610c3361157e565b5b9060005260206000209060040201600201604051610c5291906116c7565b604051809103902003610c98578160008281548110610c7457610c7361157e565b5b90600052602060002090600402016003019081610c919190611440565b5050610cad565b8080610ca3906115dc565b915050610c0b565b505b5050565b6000819050919050565b610cc481610cb1565b82525050565b6000602082019050610cdf6000830184610cbb565b92915050565b6000604051905090565b600080fd5b600080fd5b600080fd5b600080fd5b6000601f19601f8301169050919050565b7f4e487b7100000000000000000000000000000000000000000000000000000000600052604160045260246000fd5b610d4c82610d03565b810181811067ffffffffffffffff82111715610d6b57610d6a610d14565b5b80604052505050565b6000610d7e610ce5565b9050610d8a8282610d43565b919050565b600067ffffffffffffffff821115610daa57610da9610d14565b5b610db382610d03565b9050602081019050919050565b82818337600083830152505050565b6000610de2610ddd84610d8f565b610d74565b905082815260208101848484011115610dfe57610dfd610cfe565b5b610e09848285610dc0565b509392505050565b600082601f830112610e2657610e25610cf9565b5b8135610e36848260208601610dcf565b91505092915050565b60008060008060808587031215610e5957610e58610cef565b5b600085013567ffffffffffffffff811115610e7757610e76610cf4565b5b610e8387828801610e11565b945050602085013567ffffffffffffffff811115610ea457610ea3610cf4565b5b610eb087828801610e11565b935050604085013567ffffffffffffffff811115610ed157610ed0610cf4565b5b610edd87828801610e11565b925050606085013567ffffffffffffffff811115610efe57610efd610cf4565b5b610f0a87828801610e11565b91505092959194509250565b610f1f81610cb1565b8114610f2a57600080fd5b50565b600081359050610f3c81610f16565b92915050565b600060208284031215610f5857610f57610cef565b5b6000610f6684828501610f2d565b91505092915050565b600081519050919050565b600082825260208201905092915050565b60005b83811015610fa9578082015181840152602081019050610f8e565b60008484015250505050565b6000610fc082610f6f565b610fca8185610f7a565b9350610fda818560208601610f8b565b610fe381610d03565b840191505092915050565b600060808201905081810360008301526110088187610fb5565b9050818103602083015261101c8186610fb5565b905081810360408301526110308185610fb5565b905081810360608301526110448184610fb5565b905095945050505050565b600081519050919050565b600082825260208201905092915050565b6000819050602082019050919050565b600082825260208201905092915050565b600061109782610f6f565b6110a1818561107b565b93506110b1818560208601610f8b565b6110ba81610d03565b840191505092915050565b60006110d1838361108c565b905092915050565b6000602082019050919050565b60006110f18261104f565b6110fb818561105a565b93508360208202850161110d8561106b565b8060005b85811015611149578484038952815161112a85826110c5565b9450611135836110d9565b925060208a01995050600181019050611111565b50829750879550505050505092915050565b6000608082019050818103600083015261117581876110e6565b9050818103602083015261118981866110e6565b9050818103604083015261119d81856110e6565b905081810360608301526111b181846110e6565b905095945050505050565b600080604083850312156111d3576111d2610cef565b5b600083013567ffffffffffffffff8111156111f1576111f0610cf4565b5b6111fd85828601610e11565b925050602083013567ffffffffffffffff81111561121e5761121d610cf4565b5b61122a85828601610e11565b9150509250929050565b7f4e487b7100000000000000000000000000000000000000000000000000000000600052602260045260246000fd5b6000600282049050600182168061127b57607f821691505b60208210810361128e5761128d611234565b5b50919050565b60008190508160005260206000209050919050565b60006020601f8301049050919050565b600082821b905092915050565b6000600883026112f67fffffffffffffffffffffffffffffffffffffffffffffffffffffffffffffffff826112b9565b61130086836112b9565b95508019841693508086168417925050509392505050565b6000819050919050565b600061133d61133861133384610cb1565b611318565b610cb1565b9050919050565b6000819050919050565b61135783611322565b61136b61136382611344565b8484546112c6565b825550505050565b600090565b611380611373565b61138b81848461134e565b505050565b5b818110156113af576113a4600082611378565b600181019050611391565b5050565b601f8211156113f4576113c581611294565b6113ce846112a9565b810160208510156113dd578190505b6113f16113e9856112a9565b830182611390565b50505b505050565b600082821c905092915050565b6000611417600019846008026113f9565b1980831691505092915050565b60006114308383611406565b9150826002028217905092915050565b61144982610f6f565b67ffffffffffffffff81111561146257611461610d14565b5b61146c8254611263565b6114778282856113b3565b600060209050601f8311600181146114aa5760008415611498578287015190505b6114a28582611424565b86555061150a565b601f1984166114b886611294565b60005b828110156114e0578489015182556001820191506020850194506020810190506114bb565b868310156114fd57848901516114f9601f891682611406565b8355505b6001600288020188555050505b505050505050565b7f496e646578206f7574206f6620626f756e647300000000000000000000000000600082015250565b6000611548601383610f7a565b915061155382611512565b602082019050919050565b600060208201905081810360008301526115778161153b565b9050919050565b7f4e487b7100000000000000000000000000000000000000000000000000000000600052603260045260246000fd5b7f4e487b7100000000000000000000000000000000000000000000000000000000600052601160045260246000fd5b60006115e782610cb1565b91507fffffffffffffffffffffffffffffffffffffffffffffffffffffffffffffffff8203611619576116186115ad565b5b600182019050919050565b600081905092915050565b60008190508160005260206000209050919050565b6000815461165181611263565b61165b8186611624565b94506001821660008114611676576001811461168b576116be565b60ff19831686528115158202860193506116be565b6116948561162f565b60005b838110156116b657815481890152600182019150602081019050611697565b838801955050505b50505092915050565b60006116d38284611644565b91508190509291505056fea2646970667358221220ea54129058513c985be641f5d5cb68be006556869321c2c0749fa95b370bbbcf64736f6c63430008140033",
  "linkReferences": {},
  "deployedLinkReferences": {}
}