{
    "contractName": "ModelRegistry",
    "abi": [
        {
            "inputs": [
                {
                    "internalType": "string",
                    "name": "_name",
                    "type": "string"
                },
                {
                    "internalType": "string",
                    "name": "_data",
                    "type": "string"
                },
                {
                    "internalType": "string",
                    "name": "_id",
                    "type": "string"
                },
                {
                    "internalType": "string",
                    "name": "_accuracy",
                    "type": "string"
                }
            ],
            "name": "addModel",
            "outputs": [],
            "stateMutability": "nonpayable",
            "type": "function"
        },
        {
            "inputs": [],
            "name": "getAllModels",
            "outputs": [
                {
                    "internalType": "string[]",
                    "name": "",
                    "type": "string[]"
                },
                {
                    "internalType": "string[]",
                    "name": "",
                    "type": "string[]"
                },
                {
                    "internalType": "string[]",
                    "name": "",
                    "type": "string[]"
                },
                {
                    "internalType": "string[]",
                    "name": "",
                    "type": "string[]"
                }
            ],
            "stateMutability": "view",
            "type": "function"
        },
        {
            "inputs": [
                {
                    "internalType": "uint256",
                    "name": "index",
                    "type": "uint256"
                }
            ],
            "name": "getModel",
            "outputs": [
                {
                    "internalType": "string",
                    "name": "",
                    "type": "string"
                },
                {
                    "internalType": "string",
                    "name": "",
                    "type": "string"
                },
                {
                    "internalType": "string",
                    "name": "",
                    "type": "string"
                },
                {
                    "internalType": "string",
                    "name": "",
                    "type": "string"
                }
            ],
            "stateMutability": "view",
            "type": "function"
        },
        {
            "inputs": [],
            "name": "getModelsCount",
            "outputs": [
                {
                    "internalType": "uint256",
                    "name": "",
                    "type": "uint256"
                }
            ],
            "stateMutability": "view",
            "type": "function"
        },
        {
            "inputs": [
                {
                    "internalType": "uint256",
                    "name": "",
                    "type": "uint256"
                }
            ],
            "name": "models",
            "outputs": [
                {
                    "internalType": "string",
                    "name": "name",
                    "type": "string"
                },
                {
                    "internalType": "string",
                    "name": "data",
                    "type": "string"
                },
                {
                    "internalType": "string",
                    "name": "id",
                    "type": "string"
                },
                {
                    "internalType": "string",
                    "name": "accuracy",
                    "type": "string"
                }
            ],
            "stateMutability": "view",
            "type": "function"
        },
        {
            "inputs": [
                {
                    "internalType": "string",
                    "name": "_id",
                    "type": "string"
                },
                {
                    "internalType": "string",
                    "name": "_newAccuracy",
                    "type": "string"
                }
            ],
            "name": "updateModelAccuracy",
            "outputs": [],
            "stateMutability": "nonpayable",
            "type": "function"
        }
    ],
    "bytecode": "608060405234801561000f575f80fd5b506111098061001d5f395ff3fe608060405234801561000f575f80fd5b5060043610610060575f3560e01c8063298fbde01461006457806361e6210e146100795780636a030ca91461008e5780636d361694146100b1578063a9a5cb3a146100c4578063e41a4ddc146100dc575b5f80fd5b5f546040519081526020015b60405180910390f35b61008c610087366004610c8f565b6100ef565b005b6100a161009c366004610d35565b61019b565b6040516100709493929190610d8f565b6100a16100bf366004610d35565b6103ed565b6100cc6106cd565b6040516100709493929190610e3c565b61008c6100ea366004610e88565b610b59565b6040805160808101825285815260208101859052908101839052606081018290525f8054600181018255908052815182916004027f290decd9548b62a8d60345a988386fc84ba6bc95484008f6362f93160ef3e563019081906101529082610f6d565b50602082015160018201906101679082610f6d565b506040820151600282019061017c9082610f6d565b50606082015160038201906101919082610f6d565b5050505050505050565b5f81815481106101a9575f80fd5b905f5260205f2090600402015f91509050805f0180546101c890610ee8565b80601f01602080910402602001604051908101604052809291908181526020018280546101f490610ee8565b801561023f5780601f106102165761010080835404028352916020019161023f565b820191905f5260205f20905b81548152906001019060200180831161022257829003601f168201915b50505050509080600101805461025490610ee8565b80601f016020809104026020016040519081016040528092919081815260200182805461028090610ee8565b80156102cb5780601f106102a2576101008083540402835291602001916102cb565b820191905f5260205f20905b8154815290600101906020018083116102ae57829003601f168201915b5050505050908060020180546102e090610ee8565b80601f016020809104026020016040519081016040528092919081815260200182805461030c90610ee8565b80156103575780601f1061032e57610100808354040283529160200191610357565b820191905f5260205f20905b81548152906001019060200180831161033a57829003601f168201915b50505050509080600301805461036c90610ee8565b80601f016020809104026020016040519081016040528092919081815260200182805461039890610ee8565b80156103e35780601f106103ba576101008083540402835291602001916103e3565b820191905f5260205f20905b8154815290600101906020018083116103c657829003601f168201915b5050505050905084565b6060806060805f8054905085106104405760405162461bcd60e51b8152602060048201526013602482015272496e646578206f7574206f6620626f756e647360681b604482015260640160405180910390fd5b5f80868154811061045357610453611029565b905f5260205f2090600402016040518060800160405290815f8201805461047990610ee8565b80601f01602080910402602001604051908101604052809291908181526020018280546104a590610ee8565b80156104f05780601f106104c7576101008083540402835291602001916104f0565b820191905f5260205f20905b8154815290600101906020018083116104d357829003601f168201915b5050505050815260200160018201805461050990610ee8565b80601f016020809104026020016040519081016040528092919081815260200182805461053590610ee8565b80156105805780601f1061055757610100808354040283529160200191610580565b820191905f5260205f20905b81548152906001019060200180831161056357829003601f168201915b5050505050815260200160028201805461059990610ee8565b80601f01602080910402602001604051908101604052809291908181526020018280546105c590610ee8565b80156106105780601f106105e757610100808354040283529160200191610610565b820191905f5260205f20905b8154815290600101906020018083116105f357829003601f168201915b5050505050815260200160038201805461062990610ee8565b80601f016020809104026020016040519081016040528092919081815260200182805461065590610ee8565b80156106a05780601f10610677576101008083540402835291602001916106a0565b820191905f5260205f20905b81548152906001019060200180831161068357829003601f168201915b505050919092525050815160208301516040840151606090940151919a9099509297509550909350505050565b5f8054606091829182918291908167ffffffffffffffff8111156106f3576106f3610bf2565b60405190808252806020026020018201604052801561072657816020015b60608152602001906001900390816107115790505b5090505f8267ffffffffffffffff81111561074357610743610bf2565b60405190808252806020026020018201604052801561077657816020015b60608152602001906001900390816107615790505b5090505f8367ffffffffffffffff81111561079357610793610bf2565b6040519080825280602002602001820160405280156107c657816020015b60608152602001906001900390816107b15790505b5090505f8467ffffffffffffffff8111156107e3576107e3610bf2565b60405190808252806020026020018201604052801561081657816020015b60608152602001906001900390816108015790505b5090505f5b85811015610b49575f818154811061083557610835611029565b905f5260205f2090600402015f01805461084e90610ee8565b80601f016020809104026020016040519081016040528092919081815260200182805461087a90610ee8565b80156108c55780601f1061089c576101008083540402835291602001916108c5565b820191905f5260205f20905b8154815290600101906020018083116108a857829003601f168201915b50505050508582815181106108dc576108dc611029565b60200260200101819052505f81815481106108f9576108f9611029565b905f5260205f209060040201600101805461091390610ee8565b80601f016020809104026020016040519081016040528092919081815260200182805461093f90610ee8565b801561098a5780601f106109615761010080835404028352916020019161098a565b820191905f5260205f20905b81548152906001019060200180831161096d57829003601f168201915b50505050508482815181106109a1576109a1611029565b60200260200101819052505f81815481106109be576109be611029565b905f5260205f20906004020160020180546109d890610ee8565b80601f0160208091040260200160405190810160405280929190818152602001828054610a0490610ee8565b8015610a4f5780601f10610a2657610100808354040283529160200191610a4f565b820191905f5260205f20905b815481529060010190602001808311610a3257829003601f168201915b5050505050838281518110610a6657610a66611029565b60200260200101819052505f8181548110610a8357610a83611029565b905f5260205f2090600402016003018054610a9d90610ee8565b80601f0160208091040260200160405190810160405280929190818152602001828054610ac990610ee8565b8015610b145780601f10610aeb57610100808354040283529160200191610b14565b820191905f5260205f20905b815481529060010190602001808311610af757829003601f168201915b5050505050828281518110610b2b57610b2b611029565b60200260200101819052508080610b419061103d565b91505061081b565b5092989197509550909350915050565b5f5b5f54811015610bed5782805190602001205f8281548110610b7e57610b7e611029565b905f5260205f209060040201600201604051610b9a9190611061565b604051809103902003610bdb57815f8281548110610bba57610bba611029565b905f5260205f2090600402016003019081610bd59190610f6d565b50505050565b80610be58161103d565b915050610b5b565b505050565b634e487b7160e01b5f52604160045260245ffd5b5f82601f830112610c15575f80fd5b813567ffffffffffffffff80821115610c3057610c30610bf2565b604051601f8301601f19908116603f01168101908282118183101715610c5857610c58610bf2565b81604052838152866020858801011115610c70575f80fd5b836020870160208301375f602085830101528094505050505092915050565b5f805f8060808587031215610ca2575f80fd5b843567ffffffffffffffff80821115610cb9575f80fd5b610cc588838901610c06565b95506020870135915080821115610cda575f80fd5b610ce688838901610c06565b94506040870135915080821115610cfb575f80fd5b610d0788838901610c06565b93506060870135915080821115610d1c575f80fd5b50610d2987828801610c06565b91505092959194509250565b5f60208284031215610d45575f80fd5b5035919050565b5f81518084525f5b81811015610d7057602081850181015186830182015201610d54565b505f602082860101526020601f19601f83011685010191505092915050565b608081525f610da16080830187610d4c565b8281036020840152610db38187610d4c565b90508281036040840152610dc78186610d4c565b90508281036060840152610ddb8185610d4c565b979650505050505050565b5f82825180855260208086019550808260051b8401018186015f5b84811015610e2f57601f19868403018952610e1d838351610d4c565b98840198925090830190600101610e01565b5090979650505050505050565b608081525f610e4e6080830187610de6565b8281036020840152610e608187610de6565b90508281036040840152610e748186610de6565b90508281036060840152610ddb8185610de6565b5f8060408385031215610e99575f80fd5b823567ffffffffffffffff80821115610eb0575f80fd5b610ebc86838701610c06565b93506020850135915080821115610ed1575f80fd5b50610ede85828601610c06565b9150509250929050565b600181811c90821680610efc57607f821691505b602082108103610f1a57634e487b7160e01b5f52602260045260245ffd5b50919050565b601f821115610bed575f81815260208120601f850160051c81016020861015610f465750805b601f850160051c820191505b81811015610f6557828155600101610f52565b505050505050565b815167ffffffffffffffff811115610f8757610f87610bf2565b610f9b81610f958454610ee8565b84610f20565b602080601f831160018114610fce575f8415610fb75750858301515b5f19600386901b1c1916600185901b178555610f65565b5f85815260208120601f198616915b82811015610ffc57888601518255948401946001909101908401610fdd565b508582101561101957878501515f19600388901b60f8161c191681555b5050505050600190811b01905550565b634e487b7160e01b5f52603260045260245ffd5b5f6001820161105a57634e487b7160e01b5f52601160045260245ffd5b5060010190565b5f80835461106e81610ee8565b60018281168015611086576001811461109b576110c7565b60ff19841687528215158302870194506110c7565b875f526020805f205f5b858110156110be5781548a8201529084019082016110a5565b50505082870194505b5092969550505050505056fea2646970667358221220d15928d2b391e12f314896f70483bcbb6b74df268abcf8e5a3fa32de2d9ee29a64736f6c63430008140033",
    "sourcePath": "/home/aleleo/tesi_code/contracts/storageId.sol",
    "compiler": {
        "name": "solc",
        "version": "0.8.20+commit.a1b79de6"
    },
    "functionHashes": {
        "addModel(string,string,string,string)": "61e6210e",
        "getAllModels()": "a9a5cb3a",
        "getModel(uint256)": "6d361694",
        "getModelsCount()": "298fbde0",
        "models(uint256)": "6a030ca9",
        "updateModelAccuracy(string,string)": "e41a4ddc"
    },
    "gasEstimates": {
        "creation": {
            "codeDepositCost": "872200",
            "executionCost": "907",
            "totalCost": "873107"
        },
        "external": {
            "addModel(string,string,string,string)": "infinite",
            "getAllModels()": "infinite",
            "getModel(uint256)": "infinite",
            "getModelsCount()": "2245",
            "models(uint256)": "infinite",
            "updateModelAccuracy(string,string)": "infinite"
        }
    }
}