{
    "contractName": "StorageAction",
    "abi": [
        {
            "anonymous": false,
            "inputs": [
                {
                    "indexed": false,
                    "internalType": "string",
                    "name": "user",
                    "type": "string"
                },
                {
                    "indexed": false,
                    "internalType": "string",
                    "name": "data",
                    "type": "string"
                },
                {
                    "indexed": false,
                    "internalType": "string",
                    "name": "description",
                    "type": "string"
                }
            ],
            "name": "ActionStored",
            "type": "event"
        },
        {
            "inputs": [],
            "name": "getActions",
            "outputs": [
                {
                    "internalType": "string[]",
                    "name": "",
                    "type": "string[]"
                },
                {
                    "internalType": "string[]",
                    "name": "",
                    "type": "string[]"
                },
                {
                    "internalType": "string[]",
                    "name": "",
                    "type": "string[]"
                }
            ],
            "stateMutability": "view",
            "type": "function"
        },
        {
            "inputs": [
                {
                    "internalType": "string",
                    "name": "_user",
                    "type": "string"
                },
                {
                    "internalType": "string",
                    "name": "_data",
                    "type": "string"
                },
                {
                    "internalType": "string",
                    "name": "_description",
                    "type": "string"
                }
            ],
            "name": "storeAction",
            "outputs": [],
            "stateMutability": "nonpayable",
            "type": "function"
        }
    ],
    "bytecode": "608060405234801561000f575f80fd5b5061088a8061001d5f395ff3fe608060405234801561000f575f80fd5b5060043610610034575f3560e01c80631e868c8914610038578063504d080b1461004d575b5f80fd5b61004b610046366004610545565b61006d565b005b610055610136565b60405161006493929190610660565b60405180910390f35b60408051606081018252848152602081018490529081018290525f8054600181018255908052815160039091027f290decd9548b62a8d60345a988386fc84ba6bc95484008f6362f93160ef3e563019081906100c99082610728565b50602082015160018201906100de9082610728565b50604082015160028201906100f39082610728565b5050507ff25774305b00c8adf21a76b0f0fed35875ddf6c413d9f5e930b1ca52fccba5be838383604051610129939291906107e4565b60405180910390a1505050565b5f8054606091829182918167ffffffffffffffff811115610159576101596104a8565b60405190808252806020026020018201604052801561018c57816020015b60608152602001906001900390816101775790505b5090505f8267ffffffffffffffff8111156101a9576101a96104a8565b6040519080825280602002602001820160405280156101dc57816020015b60608152602001906001900390816101c75790505b5090505f8367ffffffffffffffff8111156101f9576101f96104a8565b60405190808252806020026020018201604052801561022c57816020015b60608152602001906001900390816102175790505b5090505f5b8481101561049a575f818154811061024b5761024b61081c565b905f5260205f2090600302015f018054610264906106a2565b80601f0160208091040260200160405190810160405280929190818152602001828054610290906106a2565b80156102db5780601f106102b2576101008083540402835291602001916102db565b820191905f5260205f20905b8154815290600101906020018083116102be57829003601f168201915b50505050508482815181106102f2576102f261081c565b60200260200101819052505f818154811061030f5761030f61081c565b905f5260205f2090600302016001018054610329906106a2565b80601f0160208091040260200160405190810160405280929190818152602001828054610355906106a2565b80156103a05780601f10610377576101008083540402835291602001916103a0565b820191905f5260205f20905b81548152906001019060200180831161038357829003601f168201915b50505050508382815181106103b7576103b761081c565b60200260200101819052505f81815481106103d4576103d461081c565b905f5260205f20906003020160020180546103ee906106a2565b80601f016020809104026020016040519081016040528092919081815260200182805461041a906106a2565b80156104655780601f1061043c57610100808354040283529160200191610465565b820191905f5260205f20905b81548152906001019060200180831161044857829003601f168201915b505050505082828151811061047c5761047c61081c565b6020026020010181905250808061049290610830565b915050610231565b509196909550909350915050565b634e487b7160e01b5f52604160045260245ffd5b5f82601f8301126104cb575f80fd5b813567ffffffffffffffff808211156104e6576104e66104a8565b604051601f8301601f19908116603f0116810190828211818310171561050e5761050e6104a8565b81604052838152866020858801011115610526575f80fd5b836020870160208301375f602085830101528094505050505092915050565b5f805f60608486031215610557575f80fd5b833567ffffffffffffffff8082111561056e575f80fd5b61057a878388016104bc565b9450602086013591508082111561058f575f80fd5b61059b878388016104bc565b935060408601359150808211156105b0575f80fd5b506105bd868287016104bc565b9150509250925092565b5f81518084525f5b818110156105eb576020818501810151868301820152016105cf565b505f602082860101526020601f19601f83011685010191505092915050565b5f82825180855260208086019550808260051b8401018186015f5b8481101561065357601f198684030189526106418383516105c7565b98840198925090830190600101610625565b5090979650505050505050565b606081525f610672606083018661060a565b8281036020840152610684818661060a565b90508281036040840152610698818561060a565b9695505050505050565b600181811c908216806106b657607f821691505b6020821081036106d457634e487b7160e01b5f52602260045260245ffd5b50919050565b601f821115610723575f81815260208120601f850160051c810160208610156107005750805b601f850160051c820191505b8181101561071f5782815560010161070c565b5050505b505050565b815167ffffffffffffffff811115610742576107426104a8565b6107568161075084546106a2565b846106da565b602080601f831160018114610789575f84156107725750858301515b5f19600386901b1c1916600185901b17855561071f565b5f85815260208120601f198616915b828110156107b757888601518255948401946001909101908401610798565b50858210156107d457878501515f19600388901b60f8161c191681555b5050505050600190811b01905550565b606081525f6107f660608301866105c7565b828103602084015261080881866105c7565b9050828103604084015261069881856105c7565b634e487b7160e01b5f52603260045260245ffd5b5f6001820161084d57634e487b7160e01b5f52601160045260245ffd5b506001019056fea2646970667358221220463770e6b76ca4048eca9439128ca9fb75e1da401515f19ece0cc3227b828e6064736f6c63430008140033",
    "sourcePath": "/home/aleleo/tesi_code/contracts/storageActions.sol",
    "compiler": {
        "name": "solc",
        "version": "0.8.20+commit.a1b79de6"
    },
    "functionHashes": {
        "getActions()": "504d080b",
        "storeAction(string,string,string)": "1e868c89"
    },
    "gasEstimates": {
        "creation": {
            "codeDepositCost": "437200",
            "executionCost": "472",
            "totalCost": "437672"
        },
        "external": {
            "getActions()": "infinite",
            "storeAction(string,string,string)": "infinite"
        }
    }
}