{
  "_format": "hh-sol-artifact-1",
  "contractName": "StorageAction",
  "sourceName": "contracts/storageActions.sol",
  "abi": [
    {
      "anonymous": false,
      "inputs": [
        {
          "indexed": false,
          "internalType": "string",
          "name": "user",
          "type": "string"
        },
        {
          "indexed": false,
          "internalType": "string",
          "name": "data",
          "type": "string"
        },
        {
          "indexed": false,
          "internalType": "string",
          "name": "description",
          "type": "string"
        }
      ],
      "name": "ActionStored",
      "type": "event"
    },
    {
      "inputs": [],
      "name": "getActions",
      "outputs": [
        {
          "internalType": "string[]",
          "name": "",
          "type": "string[]"
        },
        {
          "internalType": "string[]",
          "name": "",
          "type": "string[]"
        },
        {
          "internalType": "string[]",
          "name": "",
          "type": "string[]"
        }
      ],
      "stateMutability": "view",
      "type": "function"
    },
    {
      "inputs": [
        {
          "internalType": "string",
          "name": "_user",
          "type": "string"
        },
        {
          "internalType": "string",
          "name": "_data",
          "type": "string"
        },
        {
          "internalType": "string",
          "name": "_description",
          "type": "string"
        }
      ],
      "name": "storeAction",
      "outputs": [],
      "stateMutability": "nonpayable",
      "type": "function"
    }
  ],
  "bytecode": "0x608060405234801561001057600080fd5b50610cc2806100206000396000f3fe608060405234801561001057600080fd5b50600436106100365760003560e01c80631e868c891461003b578063504d080b14610057575b600080fd5b61005560048036038101906100509190610634565b610077565b005b61005f610141565b60405161006e9392919061081c565b60405180910390f35b6000604051806060016040528085815260200184815260200183815250908060018154018082558091505060019003906000526020600020906003020160009091909190915060008201518160000190816100d29190610a7e565b5060208201518160010190816100e89190610a7e565b5060408201518160020190816100fe9190610a7e565b5050507ff25774305b00c8adf21a76b0f0fed35875ddf6c413d9f5e930b1ca52fccba5be83838360405161013493929190610b9a565b60405180910390a1505050565b606080606060008080549050905060008167ffffffffffffffff81111561016b5761016a610509565b5b60405190808252806020026020018201604052801561019e57816020015b60608152602001906001900390816101895790505b50905060008267ffffffffffffffff8111156101bd576101bc610509565b5b6040519080825280602002602001820160405280156101f057816020015b60608152602001906001900390816101db5790505b50905060008367ffffffffffffffff81111561020f5761020e610509565b5b60405190808252806020026020018201604052801561024257816020015b606081526020019060019003908161022d5790505b50905060005b848110156104c7576000818154811061026457610263610be6565b5b9060005260206000209060030201600001805461028090610897565b80601f01602080910402602001604051908101604052809291908181526020018280546102ac90610897565b80156102f95780601f106102ce576101008083540402835291602001916102f9565b820191906000526020600020905b8154815290600101906020018083116102dc57829003601f168201915b505050505084828151811061031157610310610be6565b5b6020026020010181905250600081815481106103305761032f610be6565b5b9060005260206000209060030201600101805461034c90610897565b80601f016020809104026020016040519081016040528092919081815260200182805461037890610897565b80156103c55780601f1061039a576101008083540402835291602001916103c5565b820191906000526020600020905b8154815290600101906020018083116103a857829003601f168201915b50505050508382815181106103dd576103dc610be6565b5b6020026020010181905250600081815481106103fc576103fb610be6565b5b9060005260206000209060030201600201805461041890610897565b80601f016020809104026020016040519081016040528092919081815260200182805461044490610897565b80156104915780601f1061046657610100808354040283529160200191610491565b820191906000526020600020905b81548152906001019060200180831161047457829003601f168201915b50505050508282815181106104a9576104a8610be6565b5b602002602001018190525080806104bf90610c44565b915050610248565b5082828296509650965050505050909192565b6000604051905090565b600080fd5b600080fd5b600080fd5b600080fd5b6000601f19601f8301169050919050565b7f4e487b7100000000000000000000000000000000000000000000000000000000600052604160045260246000fd5b610541826104f8565b810181811067ffffffffffffffff821117156105605761055f610509565b5b80604052505050565b60006105736104da565b905061057f8282610538565b919050565b600067ffffffffffffffff82111561059f5761059e610509565b5b6105a8826104f8565b9050602081019050919050565b82818337600083830152505050565b60006105d76105d284610584565b610569565b9050828152602081018484840111156105f3576105f26104f3565b5b6105fe8482856105b5565b509392505050565b600082601f83011261061b5761061a6104ee565b5b813561062b8482602086016105c4565b91505092915050565b60008060006060848603121561064d5761064c6104e4565b5b600084013567ffffffffffffffff81111561066b5761066a6104e9565b5b61067786828701610606565b935050602084013567ffffffffffffffff811115610698576106976104e9565b5b6106a486828701610606565b925050604084013567ffffffffffffffff8111156106c5576106c46104e9565b5b6106d186828701610606565b9150509250925092565b600081519050919050565b600082825260208201905092915050565b6000819050602082019050919050565b600081519050919050565b600082825260208201905092915050565b60005b83811015610741578082015181840152602081019050610726565b60008484015250505050565b600061075882610707565b6107628185610712565b9350610772818560208601610723565b61077b816104f8565b840191505092915050565b6000610792838361074d565b905092915050565b6000602082019050919050565b60006107b2826106db565b6107bc81856106e6565b9350836020820285016107ce856106f7565b8060005b8581101561080a57848403895281516107eb8582610786565b94506107f68361079a565b925060208a019950506001810190506107d2565b50829750879550505050505092915050565b6000606082019050818103600083015261083681866107a7565b9050818103602083015261084a81856107a7565b9050818103604083015261085e81846107a7565b9050949350505050565b7f4e487b7100000000000000000000000000000000000000000000000000000000600052602260045260246000fd5b600060028204905060018216806108af57607f821691505b6020821081036108c2576108c1610868565b5b50919050565b60008190508160005260206000209050919050565b60006020601f8301049050919050565b600082821b905092915050565b60006008830261092a7fffffffffffffffffffffffffffffffffffffffffffffffffffffffffffffffff826108ed565b61093486836108ed565b95508019841693508086168417925050509392505050565b6000819050919050565b6000819050919050565b600061097b6109766109718461094c565b610956565b61094c565b9050919050565b6000819050919050565b61099583610960565b6109a96109a182610982565b8484546108fa565b825550505050565b600090565b6109be6109b1565b6109c981848461098c565b505050565b5b818110156109ed576109e26000826109b6565b6001810190506109cf565b5050565b601f821115610a3257610a03816108c8565b610a0c846108dd565b81016020851015610a1b578190505b610a2f610a27856108dd565b8301826109ce565b50505b505050565b600082821c905092915050565b6000610a5560001984600802610a37565b1980831691505092915050565b6000610a6e8383610a44565b9150826002028217905092915050565b610a8782610707565b67ffffffffffffffff811115610aa057610a9f610509565b5b610aaa8254610897565b610ab58282856109f1565b600060209050601f831160018114610ae85760008415610ad6578287015190505b610ae08582610a62565b865550610b48565b601f198416610af6866108c8565b60005b82811015610b1e57848901518255600182019150602085019450602081019050610af9565b86831015610b3b5784890151610b37601f891682610a44565b8355505b6001600288020188555050505b505050505050565b600082825260208201905092915050565b6000610b6c82610707565b610b768185610b50565b9350610b86818560208601610723565b610b8f816104f8565b840191505092915050565b60006060820190508181036000830152610bb48186610b61565b90508181036020830152610bc88185610b61565b90508181036040830152610bdc8184610b61565b9050949350505050565b7f4e487b7100000000000000000000000000000000000000000000000000000000600052603260045260246000fd5b7f4e487b7100000000000000000000000000000000000000000000000000000000600052601160045260246000fd5b6000610c4f8261094c565b91507fffffffffffffffffffffffffffffffffffffffffffffffffffffffffffffffff8203610c8157610c80610c15565b5b60018201905091905056fea2646970667358221220637a04c3989f4fcaf0019671d90671bc58ab539848ff6f37418bd62260292ab564736f6c63430008140033",
  "linkReferences": {},
  "deployedLinkReferences": {}
}